{
  "contractName": "Helpers",
  "abi": [
    {
      "inputs": [
        {
          "internalType": "uint256",
          "name": "_min",
          "type": "uint256"
        },
        {
          "internalType": "uint256",
          "name": "_max",
          "type": "uint256"
        }
      ],
      "name": "getRandomRange",
      "outputs": [
        {
          "internalType": "uint256",
          "name": "",
          "type": "uint256"
        }
      ],
      "stateMutability": "nonpayable",
      "type": "function"
    },
    {
      "inputs": [
        {
          "internalType": "uint256[]",
          "name": "_probability",
          "type": "uint256[]"
        }
      ],
      "name": "getRandomIndexInArrayWitsProbability",
      "outputs": [
        {
          "internalType": "uint256",
          "name": "",
          "type": "uint256"
        }
      ],
      "stateMutability": "nonpayable",
      "type": "function"
    }
  ],
  "bytecode": "0x60806040526000805534801561001457600080fd5b506106bb806100246000396000f3fe608060405234801561001057600080fd5b50600436106100365760003560e01c8063aa749eb31461003b578063c11cd1951461006b575b600080fd5b610055600480360381019061005091906102d2565b61009b565b6040516100629190610321565b60405180910390f35b610085600480360381019061008091906103a1565b610133565b6040516100929190610321565b60405180910390f35b60006100b3600160005461023f90919063ffffffff16565b60008190555061012b836100e360016100d5878761026b90919063ffffffff16565b61023f90919063ffffffff16565b42336000546040516020016100fa93929190610489565b6040516020818303038152906040528051906020012060001c61011d91906104f5565b61023f90919063ffffffff16565b905092915050565b60008060009050600080806000905060005b878790508110156101915761017c88888381811061016657610165610526565b5b905060200201358661023f90919063ffffffff16565b9450808061018990610584565b915050610145565b5061019d60018561009b565b915060005b878790508110156102315783831180156101e757506101e38888838181106101cd576101cc610526565b5b905060200201358561023f90919063ffffffff16565b8311155b156101f0578091505b61021c88888381811061020657610205610526565b5b905060200201358561023f90919063ffffffff16565b9350808061022990610584565b9150506101a2565b508094505050505092915050565b600080828461024e91906105cc565b90508381101561026157610260610622565b5b8091505092915050565b60008282111561027e5761027d610622565b5b818361028a9190610651565b905092915050565b600080fd5b600080fd5b6000819050919050565b6102af8161029c565b81146102ba57600080fd5b50565b6000813590506102cc816102a6565b92915050565b600080604083850312156102e9576102e8610292565b5b60006102f7858286016102bd565b9250506020610308858286016102bd565b9150509250929050565b61031b8161029c565b82525050565b60006020820190506103366000830184610312565b92915050565b600080fd5b600080fd5b600080fd5b60008083601f8401126103615761036061033c565b5b8235905067ffffffffffffffff81111561037e5761037d610341565b5b60208301915083602082028301111561039a57610399610346565b5b9250929050565b600080602083850312156103b8576103b7610292565b5b600083013567ffffffffffffffff8111156103d6576103d5610297565b5b6103e28582860161034b565b92509250509250929050565b6000819050919050565b6104096104048261029c565b6103ee565b82525050565b600073ffffffffffffffffffffffffffffffffffffffff82169050919050565b600061043a8261040f565b9050919050565b60008160601b9050919050565b600061045982610441565b9050919050565b600061046b8261044e565b9050919050565b61048361047e8261042f565b610460565b82525050565b600061049582866103f8565b6020820191506104a58285610472565b6014820191506104b582846103f8565b602082019150819050949350505050565b7f4e487b7100000000000000000000000000000000000000000000000000000000600052601260045260246000fd5b60006105008261029c565b915061050b8361029c565b92508261051b5761051a6104c6565b5b828206905092915050565b7f4e487b7100000000000000000000000000000000000000000000000000000000600052603260045260246000fd5b7f4e487b7100000000000000000000000000000000000000000000000000000000600052601160045260246000fd5b600061058f8261029c565b91507fffffffffffffffffffffffffffffffffffffffffffffffffffffffffffffffff82036105c1576105c0610555565b5b600182019050919050565b60006105d78261029c565b91506105e28361029c565b9250827fffffffffffffffffffffffffffffffffffffffffffffffffffffffffffffffff0382111561061757610616610555565b5b828201905092915050565b7f4e487b7100000000000000000000000000000000000000000000000000000000600052600160045260246000fd5b600061065c8261029c565b91506106678361029c565b92508282101561067a57610679610555565b5b82820390509291505056fea26469706673582212200e65018277984443417eb98112c93e62a13eccf0e1f26763bbd20e5c61f1869864736f6c634300080d0033",
  "immutableReferences": {},
  "source": "pragma solidity >=0.4.22 <0.9.0;\n\nimport \"./safemath.sol\";\n\ncontract Helpers {\n\n  using SafeMath for uint256;\n  using SafeMath32 for uint32;\n  using SafeMath16 for uint16;\n\n  uint randNonce = 0;\n\n  function getRandomRange(uint _min, uint _max) public returns(uint) {\n    randNonce = randNonce.add(1);\n    return (uint(keccak256(abi.encodePacked(block.timestamp, msg.sender, randNonce))) % _max.sub(_min).add(1)).add(_min);\n  }\n\n  function getRandomIndexInArrayWitsProbability(uint[] calldata _probability) public returns(uint) {\n    uint accumulate = 0;\n    uint accumulate2 = 0;\n    uint value;\n    uint result = 0;\n\n    for (uint i = 0; i < _probability.length; i++) {\n      accumulate = accumulate.add(_probability[i]);\n    }\n\n    value = getRandomRange(1, accumulate);\n\n    for (uint i = 0; i < _probability.length; i++) {\n      if (value > accumulate2 && value <= accumulate2.add(_probability[i])) {\n        result = i;\n      }\n      accumulate2 = accumulate2.add(_probability[i]);\n    }\n    return result;\n  }\n\n}\n",
  "sourcePath": "/Users/sergeysavin/projects/untitled/contracts/helpers.sol",
  "compiler": {
    "name": "solc",
    "version": "0.8.13+commit.abaa5c0e.Emscripten.clang"
  },
  "schemaVersion": "3.4.7",
  "updatedAt": "2022-05-09T15:17:50.967Z",
  "devdoc": {
    "kind": "dev",
    "methods": {},
    "version": 1
  },
  "userdoc": {
    "kind": "user",
    "methods": {},
    "version": 1
  }
}