{
  "contractName": "MagicRoom",
  "abi": [
    {
      "inputs": [
        {
          "internalType": "address",
          "name": "_tokenAddress",
          "type": "address"
        }
      ],
      "stateMutability": "nonpayable",
      "type": "constructor"
    },
    {
      "anonymous": false,
      "inputs": [
        {
          "indexed": false,
          "internalType": "uint256",
          "name": "roomId",
          "type": "uint256"
        },
        {
          "indexed": false,
          "internalType": "uint256",
          "name": "step",
          "type": "uint256"
        },
        {
          "indexed": false,
          "internalType": "uint256",
          "name": "chairIndex",
          "type": "uint256"
        },
        {
          "indexed": false,
          "internalType": "address",
          "name": "enter",
          "type": "address"
        },
        {
          "indexed": false,
          "internalType": "address",
          "name": "leave",
          "type": "address"
        },
        {
          "indexed": false,
          "internalType": "uint256",
          "name": "price",
          "type": "uint256"
        },
        {
          "indexed": false,
          "internalType": "uint256",
          "name": "bank",
          "type": "uint256"
        }
      ],
      "name": "ChangeChair",
      "type": "event"
    },
    {
      "anonymous": false,
      "inputs": [
        {
          "indexed": false,
          "internalType": "uint256",
          "name": "roomId",
          "type": "uint256"
        },
        {
          "indexed": false,
          "internalType": "uint256",
          "name": "step",
          "type": "uint256"
        },
        {
          "indexed": false,
          "internalType": "uint256",
          "name": "price",
          "type": "uint256"
        },
        {
          "indexed": false,
          "internalType": "uint256",
          "name": "bank",
          "type": "uint256"
        }
      ],
      "name": "FinishRoom",
      "type": "event"
    },
    {
      "anonymous": false,
      "inputs": [
        {
          "indexed": true,
          "internalType": "address",
          "name": "previousOwner",
          "type": "address"
        },
        {
          "indexed": true,
          "internalType": "address",
          "name": "newOwner",
          "type": "address"
        }
      ],
      "name": "OwnershipTransferred",
      "type": "event"
    },
    {
      "anonymous": false,
      "inputs": [
        {
          "indexed": false,
          "internalType": "uint256",
          "name": "roomId",
          "type": "uint256"
        },
        {
          "indexed": false,
          "internalType": "uint256",
          "name": "step",
          "type": "uint256"
        },
        {
          "indexed": false,
          "internalType": "address",
          "name": "chair",
          "type": "address"
        },
        {
          "indexed": false,
          "internalType": "uint256",
          "name": "value",
          "type": "uint256"
        }
      ],
      "name": "Reward",
      "type": "event"
    },
    {
      "anonymous": false,
      "inputs": [
        {
          "indexed": false,
          "internalType": "uint256",
          "name": "roomId",
          "type": "uint256"
        },
        {
          "indexed": false,
          "internalType": "uint256",
          "name": "price",
          "type": "uint256"
        }
      ],
      "name": "StartRoom",
      "type": "event"
    },
    {
      "anonymous": false,
      "inputs": [
        {
          "indexed": false,
          "internalType": "uint256",
          "name": "roomId",
          "type": "uint256"
        },
        {
          "indexed": false,
          "internalType": "uint256",
          "name": "step",
          "type": "uint256"
        },
        {
          "indexed": false,
          "internalType": "address",
          "name": "chair",
          "type": "address"
        }
      ],
      "name": "Vip",
      "type": "event"
    },
    {
      "anonymous": false,
      "inputs": [
        {
          "indexed": false,
          "internalType": "uint256",
          "name": "roomId",
          "type": "uint256"
        },
        {
          "indexed": false,
          "internalType": "uint256",
          "name": "step",
          "type": "uint256"
        },
        {
          "indexed": false,
          "internalType": "address",
          "name": "chair",
          "type": "address"
        },
        {
          "indexed": false,
          "internalType": "uint256",
          "name": "value",
          "type": "uint256"
        }
      ],
      "name": "Winner",
      "type": "event"
    },
    {
      "inputs": [
        {
          "internalType": "uint256[]",
          "name": "_probability",
          "type": "uint256[]"
        }
      ],
      "name": "getRandomIndexInArrayWitsProbability",
      "outputs": [
        {
          "internalType": "uint256",
          "name": "",
          "type": "uint256"
        }
      ],
      "stateMutability": "nonpayable",
      "type": "function"
    },
    {
      "inputs": [
        {
          "internalType": "uint256",
          "name": "_min",
          "type": "uint256"
        },
        {
          "internalType": "uint256",
          "name": "_max",
          "type": "uint256"
        }
      ],
      "name": "getRandomRange",
      "outputs": [
        {
          "internalType": "uint256",
          "name": "",
          "type": "uint256"
        }
      ],
      "stateMutability": "nonpayable",
      "type": "function"
    },
    {
      "inputs": [],
      "name": "owner",
      "outputs": [
        {
          "internalType": "address",
          "name": "",
          "type": "address"
        }
      ],
      "stateMutability": "view",
      "type": "function",
      "constant": true
    },
    {
      "inputs": [],
      "name": "renounceOwnership",
      "outputs": [],
      "stateMutability": "nonpayable",
      "type": "function"
    },
    {
      "inputs": [
        {
          "internalType": "address",
          "name": "newOwner",
          "type": "address"
        }
      ],
      "name": "transferOwnership",
      "outputs": [],
      "stateMutability": "nonpayable",
      "type": "function"
    },
    {
      "inputs": [],
      "name": "createRoom",
      "outputs": [],
      "stateMutability": "nonpayable",
      "type": "function"
    },
    {
      "inputs": [],
      "name": "getTokenimic",
      "outputs": [
        {
          "internalType": "uint256",
          "name": "fee",
          "type": "uint256"
        },
        {
          "internalType": "uint256",
          "name": "reward",
          "type": "uint256"
        },
        {
          "internalType": "uint256",
          "name": "vip",
          "type": "uint256"
        },
        {
          "internalType": "uint256",
          "name": "winners",
          "type": "uint256"
        }
      ],
      "stateMutability": "view",
      "type": "function",
      "constant": true
    },
    {
      "inputs": [],
      "name": "getCurrentRoom",
      "outputs": [
        {
          "internalType": "uint256",
          "name": "price",
          "type": "uint256"
        },
        {
          "internalType": "uint256",
          "name": "bank",
          "type": "uint256"
        },
        {
          "internalType": "uint256",
          "name": "step",
          "type": "uint256"
        },
        {
          "internalType": "bool",
          "name": "active",
          "type": "bool"
        },
        {
          "internalType": "address[]",
          "name": "chairs",
          "type": "address[]"
        }
      ],
      "stateMutability": "view",
      "type": "function",
      "constant": true
    },
    {
      "inputs": [
        {
          "internalType": "uint256",
          "name": "_amount",
          "type": "uint256"
        }
      ],
      "name": "enterToRoom",
      "outputs": [],
      "stateMutability": "nonpayable",
      "type": "function"
    },
    {
      "inputs": [],
      "name": "finish",
      "outputs": [],
      "stateMutability": "nonpayable",
      "type": "function"
    },
    {
      "inputs": [
        {
          "internalType": "address",
          "name": "_to",
          "type": "address"
        }
      ],
      "name": "withdraw",
      "outputs": [],
      "stateMutability": "nonpayable",
      "type": "function"
    },
    {
      "inputs": [],
      "name": "balanceOf",
      "outputs": [
        {
          "internalType": "uint256",
          "name": "",
          "type": "uint256"
        }
      ],
      "stateMutability": "view",
      "type": "function",
      "constant": true
    }
  ],
  "bytecode": "0x60806040526000805560405180608001604052806001815260200160328152602001601c815260200160148152506004600082015181600001556020820151816001015560408201518160020155606082015181600301555050604051806101400160405280600d60ff168152602001600360ff168152602001600360ff168152602001600360ff168152602001600d60ff168152602001600d60ff168152602001600d60ff168152602001600d60ff168152602001600d60ff168152602001600d60ff16815250600890600a620000d992919062000248565b506000600955348015620000ec57600080fd5b506040516200296238038062002962833981810160405281019062000112919062000328565b62000132620001266200017a60201b60201c565b6200018260201b60201c565b80600360006101000a81548173ffffffffffffffffffffffffffffffffffffffff021916908373ffffffffffffffffffffffffffffffffffffffff160217905550506200035a565b600033905090565b6000600160009054906101000a900473ffffffffffffffffffffffffffffffffffffffff16905081600160006101000a81548173ffffffffffffffffffffffffffffffffffffffff021916908373ffffffffffffffffffffffffffffffffffffffff1602179055508173ffffffffffffffffffffffffffffffffffffffff168173ffffffffffffffffffffffffffffffffffffffff167f8be0079c531659141344cd1fd0a4f28419497f9722a3daafe3b4186f6b6457e060405160405180910390a35050565b8280548282559060005260206000209081019282156200028c579160200282015b828111156200028b578251829060ff1690559160200191906001019062000269565b5b5090506200029b91906200029f565b5090565b5b80821115620002ba576000816000905550600101620002a0565b5090565b600080fd5b600073ffffffffffffffffffffffffffffffffffffffff82169050919050565b6000620002f082620002c3565b9050919050565b6200030281620002e3565b81146200030e57600080fd5b50565b6000815190506200032281620002f7565b92915050565b600060208284031215620003415762000340620002be565b5b6000620003518482850162000311565b91505092915050565b6125f8806200036a6000396000f3fe608060405234801561001057600080fd5b50600436106100b45760003560e01c80638da5cb5b116100715780638da5cb5b146101455780638fc5d86614610163578063aa749eb314610184578063c11cd195146101b4578063d56b2889146101e4578063f2fde38b146101ee576100b4565b80633be272aa146100b95780634267c9d5146100c357806351cff8d9146100df578063715018a6146100fb578063722713f7146101055780638b1b94a714610123575b600080fd5b6100c161020a565b005b6100dd60048036038101906100d891906119ab565b61048d565b005b6100f960048036038101906100f49190611a36565b610ce3565b005b610103610d76565b005b61010d610dfe565b60405161011a9190611a72565b60405180910390f35b61012b610e84565b60405161013c959493929190611b66565b60405180910390f35b61014d610f82565b60405161015a9190611bcf565b60405180910390f35b61016b610fac565b60405161017b9493929190611bea565b60405180910390f35b61019e60048036038101906101999190611c2f565b610fd8565b6040516101ab9190611a72565b60405180910390f35b6101ce60048036038101906101c99190611dc8565b611056565b6040516101db9190611a72565b60405180910390f35b6101ec61114b565b005b61020860048036038101906102039190611a36565b611266565b005b61021261135d565b73ffffffffffffffffffffffffffffffffffffffff16610230610f82565b73ffffffffffffffffffffffffffffffffffffffff1614610286576040517f08c379a000000000000000000000000000000000000000000000000000000000815260040161027d90611e6e565b60405180910390fd5b600060028054905014806102db5750600260016002805490506102a99190611ebd565b815481106102ba576102b9611ef1565b5b906000526020600020906006020160040160009054906101000a900460ff16155b61031a576040517f08c379a000000000000000000000000000000000000000000000000000000000815260040161031190611f6c565b60405180910390fd5b600061032960646107d0610fd8565b9050600080600a67ffffffffffffffff81111561034957610348611c85565b5b6040519080825280602002602001820160405280156103775781602001602082028036833780820191505090505b50905060026040518060c0016040528084815260200160008152602001858152602001600081526020016001151581526020018381525090806001815401808255809150506001900390600052602060002090600602016000909190919091506000820151816000015560208201518160010155604082015181600201556060820151816003015560808201518160040160006101000a81548160ff02191690831515021790555060a082015181600501908051906020019061043b9291906118ba565b5050507f152c32598ea55034957aefbd85fec659bce447d53df1d85c96fec7af9c4125f660016002805490506104719190611ebd565b83604051610480929190611f8c565b60405180910390a1505050565b6000600280549050141580156104e35750600260016002805490506104b29190611ebd565b815481106104c3576104c2611ef1565b5b906000526020600020906006020160040160009054906101000a900460ff165b610522576040517f08c379a000000000000000000000000000000000000000000000000000000000815260040161051990612001565b60405180910390fd5b806000600260016002805490506105399190611ebd565b8154811061054a57610549611ef1565b5b90600052602060002090600602016040518060c0016040529081600082015481526020016001820154815260200160028201548152602001600382015481526020016004820160009054906101000a900460ff161515151581526020016005820180548060200260200160405190810160405280929190818152602001828054801561062b57602002820191906000526020600020905b8160009054906101000a900473ffffffffffffffffffffffffffffffffffffffff1673ffffffffffffffffffffffffffffffffffffffff16815260200190600101908083116105e1575b50505050508152505090506000670de0b6b3a764000082600001516106509190612021565b905080831015816040516020016106679190612115565b604051602081830303815290604052906106b7576040517f08c379a00000000000000000000000000000000000000000000000000000000081526004016106ae91906121b2565b60405180910390fd5b506106c184611365565b600060016002805490506106d59190611ebd565b90506000600282815481106106ed576106ec611ef1565b5b906000526020600020906006020190506000610758600880548060200260200160405190810160405280929190818152602001828054801561074e57602002820191906000526020600020905b81548152602001906001019080831161073a575b5050505050611056565b9050600061077a6000600185600501805490506107759190611ebd565b610fd8565b9050600060646004600101548a61079191906121d4565b61079b919061225d565b9050600060646004600301548b6107b291906121d4565b6107bc919061225d565b9050600060646004600201548c6107d391906121d4565b6107dd919061225d565b9050600060646004600001548d6107f491906121d4565b6107fe919061225d565b905060006108938860050180548060200260200160405190810160405280929190818152602001828054801561088957602002820191906000526020600020905b8160009054906101000a900473ffffffffffffffffffffffffffffffffffffffff1673ffffffffffffffffffffffffffffffffffffffff168152602001906001019080831161083f575b505050505061140b565b905060008860050188815481106108ad576108ac611ef1565b5b9060005260206000200160009054906101000a900473ffffffffffffffffffffffffffffffffffffffff1690508860030160008154809291906108ef9061228e565b9190505550600073ffffffffffffffffffffffffffffffffffffffff1689600501888154811061092257610921611ef1565b5b9060005260206000200160009054906101000a900473ffffffffffffffffffffffffffffffffffffffff1673ffffffffffffffffffffffffffffffffffffffff1614610a36576109b289600501888154811061098157610980611ef1565b5b9060005260206000200160009054906101000a900473ffffffffffffffffffffffffffffffffffffffff1685611498565b7f84d85b96c5140afd93ea58d65f5db81f69308c98625a208450a208c6cefc0c418a8a600301548b6005018a815481106109ef576109ee611ef1565b5b9060005260206000200160009054906101000a900473ffffffffffffffffffffffffffffffffffffffff16604051610a29939291906122d6565b60405180910390a1610a45565b8385610a429190612021565b94505b60008214610bc95760008287610a5b919061225d565b905060005b8a60050180549050811015610bc257600073ffffffffffffffffffffffffffffffffffffffff168b6005018281548110610a9d57610a9c611ef1565b5b9060005260206000200160009054906101000a900473ffffffffffffffffffffffffffffffffffffffff1673ffffffffffffffffffffffffffffffffffffffff1614610baf57610b2d8b6005018281548110610afc57610afb611ef1565b5b9060005260206000200160009054906101000a900473ffffffffffffffffffffffffffffffffffffffff1683611498565b7fb03079f38acb87974c8f3b039df7e8f1fd73cafc2b81e7d102d9ceff6532f9708c8c600301548d6005018481548110610b6a57610b69611ef1565b5b9060005260206000200160009054906101000a900473ffffffffffffffffffffffffffffffffffffffff1685604051610ba6949392919061230d565b60405180910390a15b8080610bba9061228e565b915050610a60565b5050610bd8565b8585610bd59190612021565b94505b848960010154610be89190612021565b89600101819055508d896000018190555033896005018981548110610c1057610c0f611ef1565b5b9060005260206000200160006101000a81548173ffffffffffffffffffffffffffffffffffffffff021916908373ffffffffffffffffffffffffffffffffffffffff16021790555082600954610c669190612021565b6009819055507f49371f53889331f02fd1771145c8eeb0fcf49c7a388dcdfec200cff494f9d40b8a8a600301548a33858e600001548f60010154604051610cb39796959493929190612352565b60405180910390a18860030154896002015403610cd357610cd261153d565b5b5050505050505050505050505050565b610ceb61135d565b73ffffffffffffffffffffffffffffffffffffffff16610d09610f82565b73ffffffffffffffffffffffffffffffffffffffff1614610d5f576040517f08c379a0000000000000000000000000000000000000000000000000000000008152600401610d5690611e6e565b60405180910390fd5b610d6b81600954611498565b600060098190555050565b610d7e61135d565b73ffffffffffffffffffffffffffffffffffffffff16610d9c610f82565b73ffffffffffffffffffffffffffffffffffffffff1614610df2576040517f08c379a0000000000000000000000000000000000000000000000000000000008152600401610de990611e6e565b60405180910390fd5b610dfc60006117f4565b565b6000610e0861135d565b73ffffffffffffffffffffffffffffffffffffffff16610e26610f82565b73ffffffffffffffffffffffffffffffffffffffff1614610e7c576040517f08c379a0000000000000000000000000000000000000000000000000000000008152600401610e7390611e6e565b60405180910390fd5b600954905090565b6000806000806060600060026001600280549050610ea29190611ebd565b81548110610eb357610eb2611ef1565b5b906000526020600020906006020190508060000154816001015482600301548360040160009054906101000a900460ff168460050180805480602002602001604051908101604052809291908181526020018280548015610f6957602002820191906000526020600020905b8160009054906101000a900473ffffffffffffffffffffffffffffffffffffffff1673ffffffffffffffffffffffffffffffffffffffff1681526020019060010190808311610f1f575b5050505050905095509550955095509550509091929394565b6000600160009054906101000a900473ffffffffffffffffffffffffffffffffffffffff16905090565b600080600080600460000154600460010154600460020154600460030154935093509350935090919293565b6000806000815480929190610fec9061228e565b919050555082600184846110009190611ebd565b61100a9190612021565b423360005460405160200161102193929190612409565b6040516020818303038152906040528051906020012060001c6110449190612446565b61104e9190612021565b905092915050565b60008060009050600080806000905060005b86518110156110ac5786818151811061108457611083611ef1565b5b6020026020010151856110979190612021565b945080806110a49061228e565b915050611068565b506110b8600185610fd8565b915060005b865181101561113e5783831180156110fa57508681815181106110e3576110e2611ef1565b5b6020026020010151846110f69190612021565b8311155b15611103578091505b86818151811061111657611115611ef1565b5b6020026020010151846111299190612021565b935080806111369061228e565b9150506110bd565b5080945050505050919050565b61115361135d565b73ffffffffffffffffffffffffffffffffffffffff16611171610f82565b73ffffffffffffffffffffffffffffffffffffffff16146111c7576040517f08c379a00000000000000000000000000000000000000000000000000000000081526004016111be90611e6e565b60405180910390fd5b60006002805490501415801561121d5750600260016002805490506111ec9190611ebd565b815481106111fd576111fc611ef1565b5b906000526020600020906006020160040160009054906101000a900460ff165b61125c576040517f08c379a000000000000000000000000000000000000000000000000000000000815260040161125390612001565b60405180910390fd5b61126461153d565b565b61126e61135d565b73ffffffffffffffffffffffffffffffffffffffff1661128c610f82565b73ffffffffffffffffffffffffffffffffffffffff16146112e2576040517f08c379a00000000000000000000000000000000000000000000000000000000081526004016112d990611e6e565b60405180910390fd5b600073ffffffffffffffffffffffffffffffffffffffff168173ffffffffffffffffffffffffffffffffffffffff1603611351576040517f08c379a0000000000000000000000000000000000000000000000000000000008152600401611348906124e9565b60405180910390fd5b61135a816117f4565b50565b600033905090565b600360009054906101000a900473ffffffffffffffffffffffffffffffffffffffff1673ffffffffffffffffffffffffffffffffffffffff166323b872dd3330846040518463ffffffff1660e01b81526004016113c493929190612509565b6020604051808303816000875af11580156113e3573d6000803e3d6000fd5b505050506040513d601f19601f82011682018060405250810190611407919061256c565b5050565b6000806000905060005b835181101561148e57600073ffffffffffffffffffffffffffffffffffffffff1684828151811061144957611448611ef1565b5b602002602001015173ffffffffffffffffffffffffffffffffffffffff161461147b5781806114779061228e565b9250505b80806114869061228e565b915050611415565b5080915050919050565b600360009054906101000a900473ffffffffffffffffffffffffffffffffffffffff1673ffffffffffffffffffffffffffffffffffffffff1663a9059cbb83836040518363ffffffff1660e01b81526004016114f5929190612599565b6020604051808303816000875af1158015611514573d6000803e3d6000fd5b505050506040513d601f19601f82011682018060405250810190611538919061256c565b505050565b600060016002805490506115519190611ebd565b905060006002828154811061156957611568611ef1565b5b90600052602060002090600602019050600061160c8260050180548060200260200160405190810160405280929190818152602001828054801561160257602002820191906000526020600020905b8160009054906101000a900473ffffffffffffffffffffffffffffffffffffffff1673ffffffffffffffffffffffffffffffffffffffff16815260200190600101908083116115b8575b505050505061140b565b90506000818360010154611620919061225d565b905060005b836005018054905081101561178757600073ffffffffffffffffffffffffffffffffffffffff1684600501828154811061166257611661611ef1565b5b9060005260206000200160009054906101000a900473ffffffffffffffffffffffffffffffffffffffff1673ffffffffffffffffffffffffffffffffffffffff1614611774576116f28460050182815481106116c1576116c0611ef1565b5b9060005260206000200160009054906101000a900473ffffffffffffffffffffffffffffffffffffffff1683611498565b7f236e465d0279044847e2bf339f59db36affa05f745467f1a176f2cb2912bfbae85856003015486600501848154811061172f5761172e611ef1565b5b9060005260206000200160009054906101000a900473ffffffffffffffffffffffffffffffffffffffff168560405161176b949392919061230d565b60405180910390a15b808061177f9061228e565b915050611625565b5060008360040160006101000a81548160ff0219169083151502179055507f8ceed8524469194dd3df6057e840b201f02e13fe6cd614b03c30fe0fcbc37f2d848460030154856000015486600101546040516117e69493929190611bea565b60405180910390a150505050565b6000600160009054906101000a900473ffffffffffffffffffffffffffffffffffffffff16905081600160006101000a81548173ffffffffffffffffffffffffffffffffffffffff021916908373ffffffffffffffffffffffffffffffffffffffff1602179055508173ffffffffffffffffffffffffffffffffffffffff168173ffffffffffffffffffffffffffffffffffffffff167f8be0079c531659141344cd1fd0a4f28419497f9722a3daafe3b4186f6b6457e060405160405180910390a35050565b828054828255906000526020600020908101928215611933579160200282015b828111156119325782518260006101000a81548173ffffffffffffffffffffffffffffffffffffffff021916908373ffffffffffffffffffffffffffffffffffffffff160217905550916020019190600101906118da565b5b5090506119409190611944565b5090565b5b8082111561195d576000816000905550600101611945565b5090565b6000604051905090565b600080fd5b600080fd5b6000819050919050565b61198881611975565b811461199357600080fd5b50565b6000813590506119a58161197f565b92915050565b6000602082840312156119c1576119c061196b565b5b60006119cf84828501611996565b91505092915050565b600073ffffffffffffffffffffffffffffffffffffffff82169050919050565b6000611a03826119d8565b9050919050565b611a13816119f8565b8114611a1e57600080fd5b50565b600081359050611a3081611a0a565b92915050565b600060208284031215611a4c57611a4b61196b565b5b6000611a5a84828501611a21565b91505092915050565b611a6c81611975565b82525050565b6000602082019050611a876000830184611a63565b92915050565b60008115159050919050565b611aa281611a8d565b82525050565b600081519050919050565b600082825260208201905092915050565b6000819050602082019050919050565b611add816119f8565b82525050565b6000611aef8383611ad4565b60208301905092915050565b6000602082019050919050565b6000611b1382611aa8565b611b1d8185611ab3565b9350611b2883611ac4565b8060005b83811015611b59578151611b408882611ae3565b9750611b4b83611afb565b925050600181019050611b2c565b5085935050505092915050565b600060a082019050611b7b6000830188611a63565b611b886020830187611a63565b611b956040830186611a63565b611ba26060830185611a99565b8181036080830152611bb48184611b08565b90509695505050505050565b611bc9816119f8565b82525050565b6000602082019050611be46000830184611bc0565b92915050565b6000608082019050611bff6000830187611a63565b611c0c6020830186611a63565b611c196040830185611a63565b611c266060830184611a63565b95945050505050565b60008060408385031215611c4657611c4561196b565b5b6000611c5485828601611996565b9250506020611c6585828601611996565b9150509250929050565b600080fd5b6000601f19601f8301169050919050565b7f4e487b7100000000000000000000000000000000000000000000000000000000600052604160045260246000fd5b611cbd82611c74565b810181811067ffffffffffffffff82111715611cdc57611cdb611c85565b5b80604052505050565b6000611cef611961565b9050611cfb8282611cb4565b919050565b600067ffffffffffffffff821115611d1b57611d1a611c85565b5b602082029050602081019050919050565b600080fd5b6000611d44611d3f84611d00565b611ce5565b90508083825260208201905060208402830185811115611d6757611d66611d2c565b5b835b81811015611d905780611d7c8882611996565b845260208401935050602081019050611d69565b5050509392505050565b600082601f830112611daf57611dae611c6f565b5b8135611dbf848260208601611d31565b91505092915050565b600060208284031215611dde57611ddd61196b565b5b600082013567ffffffffffffffff811115611dfc57611dfb611970565b5b611e0884828501611d9a565b91505092915050565b600082825260208201905092915050565b7f4f776e61626c653a2063616c6c6572206973206e6f7420746865206f776e6572600082015250565b6000611e58602083611e11565b9150611e6382611e22565b602082019050919050565b60006020820190508181036000830152611e8781611e4b565b9050919050565b7f4e487b7100000000000000000000000000000000000000000000000000000000600052601160045260246000fd5b6000611ec882611975565b9150611ed383611975565b925082821015611ee657611ee5611e8e565b5b828203905092915050565b7f4e487b7100000000000000000000000000000000000000000000000000000000600052603260045260246000fd5b7f746865726520697320616e2061637469766520726f6f6d000000000000000000600082015250565b6000611f56601783611e11565b9150611f6182611f20565b602082019050919050565b60006020820190508181036000830152611f8581611f49565b9050919050565b6000604082019050611fa16000830185611a63565b611fae6020830184611a63565b9392505050565b7f6e6f2061637469766520726f6f6d000000000000000000000000000000000000600082015250565b6000611feb600e83611e11565b9150611ff682611fb5565b602082019050919050565b6000602082019050818103600083015261201a81611fde565b9050919050565b600061202c82611975565b915061203783611975565b9250827fffffffffffffffffffffffffffffffffffffffffffffffffffffffffffffffff0382111561206c5761206b611e8e565b5b828201905092915050565b600081905092915050565b7f616d6f756e74206d7573742062652067726561746572207468616e206f72206560008201527f7175616c20746f20000000000000000000000000000000000000000000000000602082015250565b60006120de602883612077565b91506120e982612082565b602882019050919050565b6000819050919050565b61210f61210a82611975565b6120f4565b82525050565b6000612120826120d1565b915061212c82846120fe565b60208201915081905092915050565b600081519050919050565b60005b83811015612164578082015181840152602081019050612149565b83811115612173576000848401525b50505050565b60006121848261213b565b61218e8185611e11565b935061219e818560208601612146565b6121a781611c74565b840191505092915050565b600060208201905081810360008301526121cc8184612179565b905092915050565b60006121df82611975565b91506121ea83611975565b9250817fffffffffffffffffffffffffffffffffffffffffffffffffffffffffffffffff048311821515161561222357612222611e8e565b5b828202905092915050565b7f4e487b7100000000000000000000000000000000000000000000000000000000600052601260045260246000fd5b600061226882611975565b915061227383611975565b9250826122835761228261222e565b5b828204905092915050565b600061229982611975565b91507fffffffffffffffffffffffffffffffffffffffffffffffffffffffffffffffff82036122cb576122ca611e8e565b5b600182019050919050565b60006060820190506122eb6000830186611a63565b6122f86020830185611a63565b6123056040830184611bc0565b949350505050565b60006080820190506123226000830187611a63565b61232f6020830186611a63565b61233c6040830185611bc0565b6123496060830184611a63565b95945050505050565b600060e082019050612367600083018a611a63565b6123746020830189611a63565b6123816040830188611a63565b61238e6060830187611bc0565b61239b6080830186611bc0565b6123a860a0830185611a63565b6123b560c0830184611a63565b98975050505050505050565b60008160601b9050919050565b60006123d9826123c1565b9050919050565b60006123eb826123ce565b9050919050565b6124036123fe826119f8565b6123e0565b82525050565b600061241582866120fe565b60208201915061242582856123f2565b60148201915061243582846120fe565b602082019150819050949350505050565b600061245182611975565b915061245c83611975565b92508261246c5761246b61222e565b5b828206905092915050565b7f4f776e61626c653a206e6577206f776e657220697320746865207a65726f206160008201527f6464726573730000000000000000000000000000000000000000000000000000602082015250565b60006124d3602683611e11565b91506124de82612477565b604082019050919050565b60006020820190508181036000830152612502816124c6565b9050919050565b600060608201905061251e6000830186611bc0565b61252b6020830185611bc0565b6125386040830184611a63565b949350505050565b61254981611a8d565b811461255457600080fd5b50565b60008151905061256681612540565b92915050565b6000602082840312156125825761258161196b565b5b600061259084828501612557565b91505092915050565b60006040820190506125ae6000830185611bc0565b6125bb6020830184611a63565b939250505056fea26469706673582212206a15a8c184657a0fddb9f1a51bd2152617b79994316d164fa41ae09fbe1c01bf64736f6c634300080d0033",
  "immutableReferences": {},
  "source": "pragma solidity ^0.8.0;\n\nimport \"./helpers.sol\";\nimport \"./events.sol\";\nimport \"@openzeppelin/contracts/access/Ownable.sol\";\nimport \"@openzeppelin/contracts/token/ERC20/IERC20.sol\";\n\ncontract MagicRoom is Helpers, Ownable, Events {\n  Room[] rooms;\n  IERC20 token;\n  Tokenomics tokenomics = Tokenomics(1, 50, 28, 20);\n\n  uint[] chairProbability = [13, 3, 3, 3, 13, 13, 13, 13, 13, 13];\n  uint balance = 0;\n\n  constructor(address _tokenAddress) {\n    token = IERC20(_tokenAddress);\n  }\n\n  struct Tokenomics {\n    uint fee;\n    uint reward;\n    uint vip;\n    uint winners;\n  }\n\n  struct Room {\n    uint price;\n    uint bank;\n    uint cycles;\n    uint step;\n    bool active;\n    address[] chairs;\n  }\n\n  modifier roomFinished () {\n    require(rooms.length == 0 || !rooms[rooms.length - 1].active, \"there is an active room\");\n    _;\n  }\n\n  modifier availableRoom () {\n    require(rooms.length != 0 && rooms[rooms.length - 1].active, \"no active room\");\n    _;\n  }\n\n  modifier availableAmount (uint _amount) {\n    Room memory room = rooms[rooms.length - 1];\n    uint min = room.price + 1 * 10 ** 18;\n    require(_amount >= min, string(abi.encodePacked(\"amount must be greater than or equal to \", min)));\n    _;\n  }\n\n  function createRoom() external onlyOwner roomFinished {\n    uint cycles = getRandomRange(100, 2000);\n    uint price = 0;\n    address[] memory chairs = new address[](10);\n    rooms.push(\n      Room(price, 0, cycles, 0, true, chairs)\n    );\n    emit StartRoom(rooms.length - 1, price);\n  }\n\n  function getTokenimic() external view returns (uint fee, uint reward, uint vip, uint winners ) {\n    return (tokenomics.fee, tokenomics.reward, tokenomics.vip, tokenomics.winners);\n  }\n\n  function getCurrentRoom() external view returns (\n    uint price,\n    uint bank,\n    uint step,\n    bool active,\n    address[] memory chairs\n  ) {\n    Room storage room = rooms[rooms.length - 1];\n    return (\n      room.price,\n      room.bank,\n      room.step,\n      room.active,\n      room.chairs\n    );\n  }\n\n  function _getTokens(uint _amount) private {\n    token.transferFrom(msg.sender, address(this), _amount);\n  }\n\n  function _sendTokens(address _to, uint _amount) private {\n    token.transfer(_to, _amount);\n  }\n\n  function enterToRoom(uint _amount) external availableRoom availableAmount(_amount) {\n    _getTokens(_amount);\n    uint roomId = rooms.length - 1;\n    Room storage room = rooms[roomId];\n\n    uint chairIndex = getRandomIndexInArrayWitsProbability(chairProbability);\n    uint vipChair = getRandomRange(0, room.chairs.length - 1);\n    uint rewards = _amount * tokenomics.reward / 100;\n    uint winners = _amount * tokenomics.winners / 100;\n    uint vip = _amount * tokenomics.vip / 100;\n    uint fee = _amount * tokenomics.fee / 100;\n    uint rewardAddressCount = getValidAddressCount(room.chairs);\n    address leaveAddress = room.chairs[chairIndex];\n\n    room.step++;\n\n    if (room.chairs[vipChair] != address(0)) {\n      _sendTokens(room.chairs[vipChair], vip);\n      emit Vip(roomId, room.step, room.chairs[vipChair]);\n    } else {\n      winners = winners + vip;\n    }\n\n    if (rewardAddressCount != 0) {\n      uint rewardPerChair = rewards / rewardAddressCount;\n      for (uint i = 0; i < room.chairs.length; i++) {\n        if (room.chairs[i] != address(0)) {\n          _sendTokens(room.chairs[i], rewardPerChair);\n          emit Reward(roomId, room.step, room.chairs[i], rewardPerChair);\n        }\n      }\n    } else {\n      winners = winners + rewards;\n    }\n\n    room.bank = room.bank + winners;\n    room.price = _amount;\n    room.chairs[chairIndex] = msg.sender;\n    balance = balance + fee;\n    emit ChangeChair(roomId, room.step, chairIndex, msg.sender, leaveAddress, room.price, room.bank);\n\n    if (room.cycles == room.step) {\n      _finishRoom();\n    }\n  }\n\n  function _finishRoom() private {\n    uint roomId = rooms.length - 1;\n    Room storage room = rooms[roomId];\n    uint rewardAddressCount = getValidAddressCount(room.chairs);\n    uint bankRewardPerChair = room.bank / rewardAddressCount;\n\n    for (uint i = 0; i < room.chairs.length; i++) {\n      if (room.chairs[i] != address(0)) {\n        _sendTokens(room.chairs[i], bankRewardPerChair);\n        emit Winner(roomId, room.step, room.chairs[i], bankRewardPerChair);\n      }\n    }\n\n    room.active = false;\n    emit FinishRoom(roomId, room.step, room.price, room.bank);\n  }\n\n  function finish() external onlyOwner availableRoom {\n    _finishRoom();\n  }\n\n  function withdraw(address _to) external onlyOwner {\n    _sendTokens(_to, balance);\n    balance = 0;\n  }\n\n  function balanceOf() external view onlyOwner returns(uint) {\n    return balance;\n  }\n}\n",
  "sourcePath": "/Users/sergeysavin/projects/untitled/contracts/MagicRoom.sol",
  "compiler": {
    "name": "solc",
    "version": "0.8.13+commit.abaa5c0e.Emscripten.clang"
  },
  "schemaVersion": "3.4.7",
  "updatedAt": "2022-05-13T14:20:01.770Z",
  "networkType": "ethereum",
  "devdoc": {
    "kind": "dev",
    "methods": {
      "owner()": {
        "details": "Returns the address of the current owner."
      },
      "renounceOwnership()": {
        "details": "Leaves the contract without owner. It will not be possible to call `onlyOwner` functions anymore. Can only be called by the current owner. NOTE: Renouncing ownership will leave the contract without an owner, thereby removing any functionality that is only available to the owner."
      },
      "transferOwnership(address)": {
        "details": "Transfers ownership of the contract to a new account (`newOwner`). Can only be called by the current owner."
      }
    },
    "version": 1
  },
  "userdoc": {
    "kind": "user",
    "methods": {},
    "version": 1
  }
}