{
  "contractName": "MagicRoom",
  "abi": [
    {
      "anonymous": false,
      "inputs": [
        {
          "indexed": true,
          "internalType": "address",
          "name": "previousOwner",
          "type": "address"
        },
        {
          "indexed": true,
          "internalType": "address",
          "name": "newOwner",
          "type": "address"
        }
      ],
      "name": "OwnershipTransferred",
      "type": "event"
    },
    {
      "inputs": [
        {
          "internalType": "uint256[]",
          "name": "_probability",
          "type": "uint256[]"
        }
      ],
      "name": "getRandomIndexInArrayWitsProbability",
      "outputs": [
        {
          "internalType": "uint256",
          "name": "",
          "type": "uint256"
        }
      ],
      "stateMutability": "nonpayable",
      "type": "function"
    },
    {
      "inputs": [
        {
          "internalType": "uint256",
          "name": "_min",
          "type": "uint256"
        },
        {
          "internalType": "uint256",
          "name": "_max",
          "type": "uint256"
        }
      ],
      "name": "getRandomRange",
      "outputs": [
        {
          "internalType": "uint256",
          "name": "",
          "type": "uint256"
        }
      ],
      "stateMutability": "nonpayable",
      "type": "function"
    },
    {
      "inputs": [],
      "name": "isOwner",
      "outputs": [
        {
          "internalType": "bool",
          "name": "",
          "type": "bool"
        }
      ],
      "stateMutability": "view",
      "type": "function"
    },
    {
      "inputs": [],
      "name": "owner",
      "outputs": [
        {
          "internalType": "address",
          "name": "",
          "type": "address"
        }
      ],
      "stateMutability": "view",
      "type": "function"
    },
    {
      "inputs": [],
      "name": "renounceOwnership",
      "outputs": [],
      "stateMutability": "nonpayable",
      "type": "function"
    },
    {
      "inputs": [
        {
          "internalType": "address",
          "name": "newOwner",
          "type": "address"
        }
      ],
      "name": "transferOwnership",
      "outputs": [],
      "stateMutability": "nonpayable",
      "type": "function"
    },
    {
      "inputs": [
        {
          "internalType": "uint256",
          "name": "startPrice",
          "type": "uint256"
        }
      ],
      "name": "createRoom",
      "outputs": [],
      "stateMutability": "nonpayable",
      "type": "function"
    },
    {
      "inputs": [],
      "name": "enterToRoom",
      "outputs": [],
      "stateMutability": "payable",
      "type": "function"
    }
  ],
  "bytecode": "0x60806040526000805560405180608001604052806001815260200160328152602001601c815260200160148152506003600082015181600001556020820151816001015560408201518160020155606082015181600301555050604051806101400160405280600d60ff168152602001600360ff168152602001600360ff168152602001600360ff168152602001600d60ff168152602001600d60ff168152602001600d60ff168152602001600d60ff168152602001600d60ff168152602001600d60ff16815250600790600a6100d79291906101a8565b503480156100e457600080fd5b5033600160006101000a81548173ffffffffffffffffffffffffffffffffffffffff021916908373ffffffffffffffffffffffffffffffffffffffff160217905550600160009054906101000a900473ffffffffffffffffffffffffffffffffffffffff1673ffffffffffffffffffffffffffffffffffffffff16600073ffffffffffffffffffffffffffffffffffffffff167f8be0079c531659141344cd1fd0a4f28419497f9722a3daafe3b4186f6b6457e060405160405180910390a3610217565b8280548282559060005260206000209081019282156101e9579160200282015b828111156101e8578251829060ff169055916020019190600101906101c8565b5b5090506101f691906101fa565b5090565b5b808211156102135760008160009055506001016101fb565b5090565b610d13806102266000396000f3fe60806040526004361061007b5760003560e01c8063aa749eb31161004e578063aa749eb3146100f7578063bbba825714610134578063c11cd1951461015d578063f2fde38b1461019a5761007b565b8063610134ff14610080578063715018a61461008a5780638da5cb5b146100a15780638f32d59b146100cc575b600080fd5b6100886101c3565b005b34801561009657600080fd5b5061009f6101c5565b005b3480156100ad57600080fd5b506100b6610297565b6040516100c39190610845565b60405180910390f35b3480156100d857600080fd5b506100e16102c1565b6040516100ee919061087b565b60405180910390f35b34801561010357600080fd5b5061011e600480360381019061011991906108d6565b610319565b60405161012b9190610925565b60405180910390f35b34801561014057600080fd5b5061015b60048036038101906101569190610940565b6103b1565b005b34801561016957600080fd5b50610184600480360381019061017f91906109d2565b6104e8565b6040516101919190610925565b60405180910390f35b3480156101a657600080fd5b506101c160048036038101906101bc9190610a4b565b6105f4565b005b565b6101cd6102c1565b6101d657600080fd5b600073ffffffffffffffffffffffffffffffffffffffff16600160009054906101000a900473ffffffffffffffffffffffffffffffffffffffff1673ffffffffffffffffffffffffffffffffffffffff167f8be0079c531659141344cd1fd0a4f28419497f9722a3daafe3b4186f6b6457e060405160405180910390a36000600160006101000a81548173ffffffffffffffffffffffffffffffffffffffff021916908373ffffffffffffffffffffffffffffffffffffffff160217905550565b6000600160009054906101000a900473ffffffffffffffffffffffffffffffffffffffff16905090565b6000600160009054906101000a900473ffffffffffffffffffffffffffffffffffffffff1673ffffffffffffffffffffffffffffffffffffffff163373ffffffffffffffffffffffffffffffffffffffff1614905090565b6000610331600160005461061190919063ffffffff16565b6000819055506103a9836103616001610353878761063d90919063ffffffff16565b61061190919063ffffffff16565b423360005460405160200161037893929190610ae1565b6040516020818303038152906040528051906020012060001c61039b9190610b4d565b61061190919063ffffffff16565b905092915050565b6103b96102c1565b6103c257600080fd5b60006103dd600160028054905061063d90919063ffffffff16565b9050600281815481106103f3576103f2610b7e565b5b906000526020600020906005020160030160009054906101000a900460ff161561041c57600080fd5b600061042b60646107d0610319565b9050606060026040518060a001604052808681526020016000815260200184815260200160011515815260200183815250908060018154018082558091505060019003906000526020600020906005020160009091909190915060008201518160000155602082015181600101556040820151816002015560608201518160030160006101000a81548160ff02191690831515021790555060808201518160040190805190602001906104df92919061075d565b50505050505050565b60008060009050600080806000905060005b878790508110156105465761053188888381811061051b5761051a610b7e565b5b905060200201358661061190919063ffffffff16565b9450808061053e90610bdc565b9150506104fa565b50610552600185610319565b915060005b878790508110156105e657838311801561059c575061059888888381811061058257610581610b7e565b5b905060200201358561061190919063ffffffff16565b8311155b156105a5578091505b6105d18888838181106105bb576105ba610b7e565b5b905060200201358561061190919063ffffffff16565b935080806105de90610bdc565b915050610557565b508094505050505092915050565b6105fc6102c1565b61060557600080fd5b61060e81610664565b50565b60008082846106209190610c24565b90508381101561063357610632610c7a565b5b8091505092915050565b6000828211156106505761064f610c7a565b5b818361065c9190610ca9565b905092915050565b600073ffffffffffffffffffffffffffffffffffffffff168173ffffffffffffffffffffffffffffffffffffffff160361069d57600080fd5b8073ffffffffffffffffffffffffffffffffffffffff16600160009054906101000a900473ffffffffffffffffffffffffffffffffffffffff1673ffffffffffffffffffffffffffffffffffffffff167f8be0079c531659141344cd1fd0a4f28419497f9722a3daafe3b4186f6b6457e060405160405180910390a380600160006101000a81548173ffffffffffffffffffffffffffffffffffffffff021916908373ffffffffffffffffffffffffffffffffffffffff16021790555050565b8280548282559060005260206000209081019282156107d6579160200282015b828111156107d55782518260006101000a81548173ffffffffffffffffffffffffffffffffffffffff021916908373ffffffffffffffffffffffffffffffffffffffff1602179055509160200191906001019061077d565b5b5090506107e391906107e7565b5090565b5b808211156108005760008160009055506001016107e8565b5090565b600073ffffffffffffffffffffffffffffffffffffffff82169050919050565b600061082f82610804565b9050919050565b61083f81610824565b82525050565b600060208201905061085a6000830184610836565b92915050565b60008115159050919050565b61087581610860565b82525050565b6000602082019050610890600083018461086c565b92915050565b600080fd5b600080fd5b6000819050919050565b6108b3816108a0565b81146108be57600080fd5b50565b6000813590506108d0816108aa565b92915050565b600080604083850312156108ed576108ec610896565b5b60006108fb858286016108c1565b925050602061090c858286016108c1565b9150509250929050565b61091f816108a0565b82525050565b600060208201905061093a6000830184610916565b92915050565b60006020828403121561095657610955610896565b5b6000610964848285016108c1565b91505092915050565b600080fd5b600080fd5b600080fd5b60008083601f8401126109925761099161096d565b5b8235905067ffffffffffffffff8111156109af576109ae610972565b5b6020830191508360208202830111156109cb576109ca610977565b5b9250929050565b600080602083850312156109e9576109e8610896565b5b600083013567ffffffffffffffff811115610a0757610a0661089b565b5b610a138582860161097c565b92509250509250929050565b610a2881610824565b8114610a3357600080fd5b50565b600081359050610a4581610a1f565b92915050565b600060208284031215610a6157610a60610896565b5b6000610a6f84828501610a36565b91505092915050565b6000819050919050565b610a93610a8e826108a0565b610a78565b82525050565b60008160601b9050919050565b6000610ab182610a99565b9050919050565b6000610ac382610aa6565b9050919050565b610adb610ad682610824565b610ab8565b82525050565b6000610aed8286610a82565b602082019150610afd8285610aca565b601482019150610b0d8284610a82565b602082019150819050949350505050565b7f4e487b7100000000000000000000000000000000000000000000000000000000600052601260045260246000fd5b6000610b58826108a0565b9150610b63836108a0565b925082610b7357610b72610b1e565b5b828206905092915050565b7f4e487b7100000000000000000000000000000000000000000000000000000000600052603260045260246000fd5b7f4e487b7100000000000000000000000000000000000000000000000000000000600052601160045260246000fd5b6000610be7826108a0565b91507fffffffffffffffffffffffffffffffffffffffffffffffffffffffffffffffff8203610c1957610c18610bad565b5b600182019050919050565b6000610c2f826108a0565b9150610c3a836108a0565b9250827fffffffffffffffffffffffffffffffffffffffffffffffffffffffffffffffff03821115610c6f57610c6e610bad565b5b828201905092915050565b7f4e487b7100000000000000000000000000000000000000000000000000000000600052600160045260246000fd5b6000610cb4826108a0565b9150610cbf836108a0565b925082821015610cd257610cd1610bad565b5b82820390509291505056fea26469706673582212201bcae0010659b64604b1d5dd37a0de1d41c263f891692f761871dbb794a0a94864736f6c634300080d0033",
  "immutableReferences": {},
  "source": "pragma solidity >=0.4.22 <0.9.0;\n\nimport \"./helpers.sol\";\nimport \"./ownable.sol\";\nimport \"./safemath.sol\";\n\ncontract MagicRoom is Helpers, Ownable {\n  using SafeMath for uint256;\n  using SafeMath32 for uint32;\n  using SafeMath16 for uint16;\n\n  Room[] rooms;\n  Tokenomics tokenomics = Tokenomics(1, 50, 28, 20);\n  uint[] chairProbability = [13, 3, 3, 3, 13, 13, 13, 13, 13, 13];\n\n  struct Tokenomics {\n    uint fee;\n    uint reward;\n    uint vip;\n    uint winners;\n  }\n\n  struct Room {\n    uint price;\n    uint bank;\n    uint cycles;\n    bool active;\n    address[] chairs;\n  }\n\n  function createRoom(uint startPrice) external onlyOwner {\n    uint activeRoomIndex = rooms.length.sub(1);\n    require(!rooms[activeRoomIndex].active);\n    uint cycles = getRandomRange(100, 2000);\n    address[] memory chairs;\n    rooms.push(Room(\n      startPrice,\n      0,\n      cycles,\n      true,\n      chairs\n    ));\n  }\n\n  function enterToRoom() external payable {\n//    uint chairsIndex = getRandomIndexInArrayWitsProbability(chairProbability);\n//    chairs[chairsIndex] = msg.sender;\n  }\n}\n",
  "sourcePath": "/Users/sergeysavin/projects/untitled/contracts/magicRoom.sol",
  "compiler": {
    "name": "solc",
    "version": "0.8.13+commit.abaa5c0e.Emscripten.clang"
  },
  "schemaVersion": "3.4.7",
  "updatedAt": "2022-05-10T11:19:49.908Z",
  "devdoc": {
    "kind": "dev",
    "methods": {
      "isOwner()": {
        "returns": {
          "_0": "true if `msg.sender` is the owner of the contract."
        }
      },
      "owner()": {
        "returns": {
          "_0": "the address of the owner."
        }
      },
      "renounceOwnership()": {
        "details": "Allows the current owner to relinquish control of the contract."
      },
      "transferOwnership(address)": {
        "details": "Allows the current owner to transfer control of the contract to a newOwner.",
        "params": {
          "newOwner": "The address to transfer ownership to."
        }
      }
    },
    "version": 1
  },
  "userdoc": {
    "kind": "user",
    "methods": {
      "renounceOwnership()": {
        "notice": "Renouncing to ownership will leave the contract without an owner. It will not be possible to call the functions with the `onlyOwner` modifier anymore."
      }
    },
    "version": 1
  }
}